{
  "contractName": "VoteSystem",
  "abi": [
    {
      "constant": true,
      "inputs": [
        {
          "name": "",
          "type": "uint256"
        }
      ],
      "name": "votes",
      "outputs": [
        {
          "name": "creater",
          "type": "address"
        },
        {
          "name": "nickName",
          "type": "string"
        },
        {
          "name": "theme",
          "type": "string"
        }
      ],
      "payable": false,
      "stateMutability": "view",
      "type": "function"
    },
    {
      "constant": true,
      "inputs": [],
      "name": "contractOwner",
      "outputs": [
        {
          "name": "",
          "type": "address"
        }
      ],
      "payable": false,
      "stateMutability": "view",
      "type": "function"
    },
    {
      "inputs": [],
      "payable": false,
      "stateMutability": "nonpayable",
      "type": "constructor"
    },
    {
      "constant": false,
      "inputs": [
        {
          "name": "nickName",
          "type": "string"
        },
        {
          "name": "theme",
          "type": "string"
        },
        {
          "name": "voterAddress",
          "type": "address[]"
        }
      ],
      "name": "createVote",
      "outputs": [],
      "payable": false,
      "stateMutability": "nonpayable",
      "type": "function"
    }
  ],
  "bytecode": "0x6060604052341561000f57600080fd5b33600160006101000a81548173ffffffffffffffffffffffffffffffffffffffff021916908373ffffffffffffffffffffffffffffffffffffffff1602179055506107c18061005f6000396000f300606060405260043610610057576000357c0100000000000000000000000000000000000000000000000000000000900463ffffffff1680635df813301461005c578063ce606ee014610197578063dd06be0e146101ec575b600080fd5b341561006757600080fd5b61007d60048080359060200190919050506102cc565b604051808473ffffffffffffffffffffffffffffffffffffffff1673ffffffffffffffffffffffffffffffffffffffff1681526020018060200180602001838103835285818151815260200191508051906020019080838360005b838110156100f35780820151818401526020810190506100d8565b50505050905090810190601f1680156101205780820380516001836020036101000a031916815260200191505b50838103825284818151815260200191508051906020019080838360005b8381101561015957808201518184015260208101905061013e565b50505050905090810190601f1680156101865780820380516001836020036101000a031916815260200191505b509550505050505060405180910390f35b34156101a257600080fd5b6101aa610455565b604051808273ffffffffffffffffffffffffffffffffffffffff1673ffffffffffffffffffffffffffffffffffffffff16815260200191505060405180910390f35b34156101f757600080fd5b6102ca600480803590602001908201803590602001908080601f0160208091040260200160405190810160405280939291908181526020018383808284378201915050505050509190803590602001908201803590602001908080601f016020809104026020016040519081016040528093929190818152602001838380828437820191505050505050919080359060200190820180359060200190808060200260200160405190810160405280939291908181526020018383602002808284378201915050505050509190505061047b565b005b6000818154811015156102db57fe5b90600052602060002090600402016000915090508060000160009054906101000a900473ffffffffffffffffffffffffffffffffffffffff1690806001018054600181600116156101000203166002900480601f0160208091040260200160405190810160405280929190818152602001828054600181600116156101000203166002900480156103ad5780601f10610382576101008083540402835291602001916103ad565b820191906000526020600020905b81548152906001019060200180831161039057829003601f168201915b505050505090806002018054600181600116156101000203166002900480601f01602080910402602001604051908101604052809291908181526020018280546001816001161561010002031660029004801561044b5780601f106104205761010080835404028352916020019161044b565b820191906000526020600020905b81548152906001019060200180831161042e57829003601f168201915b5050505050905083565b600160009054906101000a900473ffffffffffffffffffffffffffffffffffffffff1681565b60008080548060010182816104909190610610565b916000526020600020906004020160006060604051908101604052803373ffffffffffffffffffffffffffffffffffffffff16815260200188815260200187815250909190915060008201518160000160006101000a81548173ffffffffffffffffffffffffffffffffffffffff021916908373ffffffffffffffffffffffffffffffffffffffff160217905550602082015181600101908051906020019061053a929190610642565b506040820151816002019080519060200190610557929190610642565b50505050600090505b815181101561060a5760008060016000805490500381548110151561058157fe5b9060005260206000209060040201600301600084848151811015156105a257fe5b9060200190602002015173ffffffffffffffffffffffffffffffffffffffff1673ffffffffffffffffffffffffffffffffffffffff16815260200190815260200160002060006101000a81548160ff0219169083151502179055508080600101915050610560565b50505050565b81548183558181151161063d5760040281600402836000526020600020918201910161063c91906106c2565b5b505050565b828054600181600116156101000203166002900490600052602060002090601f016020900481019282601f1061068357805160ff19168380011785556106b1565b828001600101855582156106b1579182015b828111156106b0578251825591602001919060010190610695565b5b5090506106be9190610728565b5090565b61072591905b8082111561072157600080820160006101000a81549073ffffffffffffffffffffffffffffffffffffffff0219169055600182016000610708919061074d565b600282016000610718919061074d565b506004016106c8565b5090565b90565b61074a91905b8082111561074657600081600090555060010161072e565b5090565b90565b50805460018160011615610100020316600290046000825580601f106107735750610792565b601f0160209004906000526020600020908101906107919190610728565b5b505600a165627a7a72305820684462d7d296cd994e9cd4c751e90ca3a26e11bf4415dec5a8cc765ea7c308920029",
  "source": "pragma solidity ^0.4.17;\n\ncontract VoteSystem {\n\n  struct VoteStruct{\n    address creater;\n    string nickName;\n    string theme;\n    mapping(address => bool) voters;\n  }\n\n  VoteStruct[] public votes;\n  address public contractOwner;\n\n  function VoteSystem() public {\n    contractOwner = msg.sender;\n  }\n \n  function createVote(string nickName, string theme, address[] voterAddress) public {\n    votes.push(VoteStruct(msg.sender, nickName, theme));\n    for (uint i = 0; i < voterAddress.length; i++) {\n      votes[votes.length -1].voters[voterAddress[i]] = false;\n    }\n  }\n}",
  "sourcePath": "/Users/edz/votetest/contracts/VoteSystem.sol",
  "compiler": {
    "name": "solc",
    "version": "0.4.21+commit.dfe3193c.Emscripten.clang"
  },
  "schemaVersion": "2.0.0",
  "updatedAt": "2018-05-12T06:24:50.275Z"
}